{
  "contractName": "EcoCreditToken",
  "abi": [
    {
      "inputs": [
        {
          "internalType": "uint256",
          "name": "initTokenPrice",
          "type": "uint256"
        }
      ],
      "stateMutability": "nonpayable",
      "type": "constructor"
    },
    {
      "anonymous": false,
      "inputs": [
        {
          "indexed": true,
          "internalType": "address",
          "name": "owner",
          "type": "address"
        },
        {
          "indexed": true,
          "internalType": "address",
          "name": "spender",
          "type": "address"
        },
        {
          "indexed": false,
          "internalType": "uint256",
          "name": "value",
          "type": "uint256"
        }
      ],
      "name": "Approval",
      "type": "event"
    },
    {
      "anonymous": false,
      "inputs": [
        {
          "indexed": true,
          "internalType": "address",
          "name": "from",
          "type": "address"
        },
        {
          "indexed": true,
          "internalType": "address",
          "name": "to",
          "type": "address"
        },
        {
          "indexed": false,
          "internalType": "uint256",
          "name": "value",
          "type": "uint256"
        }
      ],
      "name": "Transfer",
      "type": "event"
    },
    {
      "inputs": [],
      "name": "EcoChainPlatformOwner",
      "outputs": [
        {
          "internalType": "address payable",
          "name": "",
          "type": "address"
        }
      ],
      "stateMutability": "view",
      "type": "function",
      "constant": true
    },
    {
      "inputs": [
        {
          "internalType": "address",
          "name": "owner",
          "type": "address"
        },
        {
          "internalType": "address",
          "name": "spender",
          "type": "address"
        }
      ],
      "name": "allowance",
      "outputs": [
        {
          "internalType": "uint256",
          "name": "",
          "type": "uint256"
        }
      ],
      "stateMutability": "view",
      "type": "function",
      "constant": true
    },
    {
      "inputs": [
        {
          "internalType": "address",
          "name": "spender",
          "type": "address"
        },
        {
          "internalType": "uint256",
          "name": "amount",
          "type": "uint256"
        }
      ],
      "name": "approve",
      "outputs": [
        {
          "internalType": "bool",
          "name": "",
          "type": "bool"
        }
      ],
      "stateMutability": "nonpayable",
      "type": "function"
    },
    {
      "inputs": [
        {
          "internalType": "address",
          "name": "account",
          "type": "address"
        }
      ],
      "name": "balanceOf",
      "outputs": [
        {
          "internalType": "uint256",
          "name": "",
          "type": "uint256"
        }
      ],
      "stateMutability": "view",
      "type": "function",
      "constant": true
    },
    {
      "inputs": [],
      "name": "decimals",
      "outputs": [
        {
          "internalType": "uint8",
          "name": "",
          "type": "uint8"
        }
      ],
      "stateMutability": "view",
      "type": "function",
      "constant": true
    },
    {
      "inputs": [
        {
          "internalType": "address",
          "name": "spender",
          "type": "address"
        },
        {
          "internalType": "uint256",
          "name": "subtractedValue",
          "type": "uint256"
        }
      ],
      "name": "decreaseAllowance",
      "outputs": [
        {
          "internalType": "bool",
          "name": "",
          "type": "bool"
        }
      ],
      "stateMutability": "nonpayable",
      "type": "function"
    },
    {
      "inputs": [
        {
          "internalType": "address",
          "name": "spender",
          "type": "address"
        },
        {
          "internalType": "uint256",
          "name": "addedValue",
          "type": "uint256"
        }
      ],
      "name": "increaseAllowance",
      "outputs": [
        {
          "internalType": "bool",
          "name": "",
          "type": "bool"
        }
      ],
      "stateMutability": "nonpayable",
      "type": "function"
    },
    {
      "inputs": [],
      "name": "name",
      "outputs": [
        {
          "internalType": "string",
          "name": "",
          "type": "string"
        }
      ],
      "stateMutability": "view",
      "type": "function",
      "constant": true
    },
    {
      "inputs": [],
      "name": "symbol",
      "outputs": [
        {
          "internalType": "string",
          "name": "",
          "type": "string"
        }
      ],
      "stateMutability": "view",
      "type": "function",
      "constant": true
    },
    {
      "inputs": [],
      "name": "tokenPrice",
      "outputs": [
        {
          "internalType": "uint256",
          "name": "",
          "type": "uint256"
        }
      ],
      "stateMutability": "view",
      "type": "function",
      "constant": true
    },
    {
      "inputs": [],
      "name": "totalSupply",
      "outputs": [
        {
          "internalType": "uint256",
          "name": "",
          "type": "uint256"
        }
      ],
      "stateMutability": "view",
      "type": "function",
      "constant": true
    },
    {
      "inputs": [
        {
          "internalType": "address",
          "name": "to",
          "type": "address"
        },
        {
          "internalType": "uint256",
          "name": "amount",
          "type": "uint256"
        }
      ],
      "name": "transfer",
      "outputs": [
        {
          "internalType": "bool",
          "name": "",
          "type": "bool"
        }
      ],
      "stateMutability": "nonpayable",
      "type": "function"
    },
    {
      "inputs": [
        {
          "internalType": "address",
          "name": "from",
          "type": "address"
        },
        {
          "internalType": "address",
          "name": "to",
          "type": "address"
        },
        {
          "internalType": "uint256",
          "name": "amount",
          "type": "uint256"
        }
      ],
      "name": "transferFrom",
      "outputs": [
        {
          "internalType": "bool",
          "name": "",
          "type": "bool"
        }
      ],
      "stateMutability": "nonpayable",
      "type": "function"
    },
    {
      "inputs": [
        {
          "internalType": "address",
          "name": "_to",
          "type": "address"
        },
        {
          "internalType": "uint256",
          "name": "_tokenCount",
          "type": "uint256"
        }
      ],
      "name": "mintToken",
      "outputs": [],
      "stateMutability": "payable",
      "type": "function",
      "payable": true
    },
    {
      "inputs": [
        {
          "internalType": "address",
          "name": "_address",
          "type": "address"
        },
        {
          "internalType": "uint256",
          "name": "_tokenCount",
          "type": "uint256"
        }
      ],
      "name": "burnToken",
      "outputs": [],
      "stateMutability": "nonpayable",
      "type": "function"
    }
  ],
  "bytecode": "0x60806040523480156200001157600080fd5b50604051620026b3380380620026b3833981810160405281019062000037919062000337565b6040518060400160405280600981526020017f45636f43726564697400000000000000000000000000000000000000000000008152506040518060400160405280600381526020017f45435200000000000000000000000000000000000000000000000000000000008152508160039081620000b49190620005d9565b508060049081620000c69190620005d9565b50505033600560006101000a81548173ffffffffffffffffffffffffffffffffffffffff021916908373ffffffffffffffffffffffffffffffffffffffff1602179055508060068190555062000170600560009054906101000a900473ffffffffffffffffffffffffffffffffffffffff16620001486200017760201b60201c565b600a62000156919062000850565b6001620001649190620008a1565b6200018060201b60201c565b5062000a10565b60006012905090565b600073ffffffffffffffffffffffffffffffffffffffff168273ffffffffffffffffffffffffffffffffffffffff1603620001f2576040517f08c379a0000000000000000000000000000000000000000000000000000000008152600401620001e99062000963565b60405180910390fd5b6200020660008383620002ed60201b60201c565b80600260008282546200021a919062000985565b92505081905550806000808473ffffffffffffffffffffffffffffffffffffffff1673ffffffffffffffffffffffffffffffffffffffff168152602001908152602001600020600082825401925050819055508173ffffffffffffffffffffffffffffffffffffffff16600073ffffffffffffffffffffffffffffffffffffffff167fddf252ad1be2c89b69c2b068fc378daa952ba7f163c4a11628f55a4df523b3ef83604051620002cd9190620009f3565b60405180910390a3620002e960008383620002f260201b60201c565b5050565b505050565b505050565b600080fd5b6000819050919050565b6200031181620002fc565b81146200031d57600080fd5b50565b600081519050620003318162000306565b92915050565b60006020828403121562000350576200034f620002f7565b5b6000620003608482850162000320565b91505092915050565b600081519050919050565b7f4e487b7100000000000000000000000000000000000000000000000000000000600052604160045260246000fd5b7f4e487b7100000000000000000000000000000000000000000000000000000000600052602260045260246000fd5b60006002820490506001821680620003eb57607f821691505b602082108103620004015762000400620003a3565b5b50919050565b60008190508160005260206000209050919050565b60006020601f8301049050919050565b600082821b905092915050565b6000600883026200046b7fffffffffffffffffffffffffffffffffffffffffffffffffffffffffffffffff826200042c565b6200047786836200042c565b95508019841693508086168417925050509392505050565b6000819050919050565b6000620004ba620004b4620004ae84620002fc565b6200048f565b620002fc565b9050919050565b6000819050919050565b620004d68362000499565b620004ee620004e582620004c1565b84845462000439565b825550505050565b600090565b62000505620004f6565b62000512818484620004cb565b505050565b5b818110156200053a576200052e600082620004fb565b60018101905062000518565b5050565b601f8211156200058957620005538162000407565b6200055e846200041c565b810160208510156200056e578190505b620005866200057d856200041c565b83018262000517565b50505b505050565b600082821c905092915050565b6000620005ae600019846008026200058e565b1980831691505092915050565b6000620005c983836200059b565b9150826002028217905092915050565b620005e48262000369565b67ffffffffffffffff8111156200060057620005ff62000374565b5b6200060c8254620003d2565b620006198282856200053e565b600060209050601f8311600181146200065157600084156200063c578287015190505b620006488582620005bb565b865550620006b8565b601f198416620006618662000407565b60005b828110156200068b5784890151825560018201915060208501945060208101905062000664565b86831015620006ab5784890151620006a7601f8916826200059b565b8355505b6001600288020188555050505b505050505050565b7f4e487b7100000000000000000000000000000000000000000000000000000000600052601160045260246000fd5b60008160011c9050919050565b6000808291508390505b60018511156200074e57808604811115620007265762000725620006c0565b5b6001851615620007365780820291505b80810290506200074685620006ef565b945062000706565b94509492505050565b6000826200076957600190506200083c565b816200077957600090506200083c565b81600181146200079257600281146200079d57620007d3565b60019150506200083c565b60ff841115620007b257620007b1620006c0565b5b8360020a915084821115620007cc57620007cb620006c0565b5b506200083c565b5060208310610133831016604e8410600b84101617156200080d5782820a905083811115620008075762000806620006c0565b5b6200083c565b6200081c8484846001620006fc565b92509050818404811115620008365762000835620006c0565b5b81810290505b9392505050565b600060ff82169050919050565b60006200085d82620002fc565b91506200086a8362000843565b9250620008997fffffffffffffffffffffffffffffffffffffffffffffffffffffffffffffffff848462000757565b905092915050565b6000620008ae82620002fc565b9150620008bb83620002fc565b9250817fffffffffffffffffffffffffffffffffffffffffffffffffffffffffffffffff0483118215151615620008f757620008f6620006c0565b5b828202905092915050565b600082825260208201905092915050565b7f45524332303a206d696e7420746f20746865207a65726f206164647265737300600082015250565b60006200094b601f8362000902565b9150620009588262000913565b602082019050919050565b600060208201905081810360008301526200097e816200093c565b9050919050565b60006200099282620002fc565b91506200099f83620002fc565b9250827fffffffffffffffffffffffffffffffffffffffffffffffffffffffffffffffff03821115620009d757620009d6620006c0565b5b828201905092915050565b620009ed81620002fc565b82525050565b600060208201905062000a0a6000830184620009e2565b92915050565b611c938062000a206000396000f3fe6080604052600436106100e85760003560e01c806379c650681161008a578063a457c2d711610059578063a457c2d7146102ff578063a9059cbb1461033c578063d1df306c14610379578063dd62ed3e146103a2576100e8565b806379c65068146102625780637ff9b5961461027e578063946f89e9146102a957806395d89b41146102d4576100e8565b806323b872dd116100c657806323b872dd14610180578063313ce567146101bd57806339509351146101e857806370a0823114610225576100e8565b806306fdde03146100ed578063095ea7b31461011857806318160ddd14610155575b600080fd5b3480156100f957600080fd5b506101026103df565b60405161010f91906110d2565b60405180910390f35b34801561012457600080fd5b5061013f600480360381019061013a919061118d565b610471565b60405161014c91906111e8565b60405180910390f35b34801561016157600080fd5b5061016a610494565b6040516101779190611212565b60405180910390f35b34801561018c57600080fd5b506101a760048036038101906101a2919061122d565b61049e565b6040516101b491906111e8565b60405180910390f35b3480156101c957600080fd5b506101d26104cd565b6040516101df919061129c565b60405180910390f35b3480156101f457600080fd5b5061020f600480360381019061020a919061118d565b6104d6565b60405161021c91906111e8565b60405180910390f35b34801561023157600080fd5b5061024c600480360381019061024791906112b7565b61050d565b6040516102599190611212565b60405180910390f35b61027c6004803603810190610277919061118d565b610555565b005b34801561028a57600080fd5b506102936105c5565b6040516102a09190611212565b60405180910390f35b3480156102b557600080fd5b506102be6105cb565b6040516102cb9190611305565b60405180910390f35b3480156102e057600080fd5b506102e96105f1565b6040516102f691906110d2565b60405180910390f35b34801561030b57600080fd5b506103266004803603810190610321919061118d565b610683565b60405161033391906111e8565b60405180910390f35b34801561034857600080fd5b50610363600480360381019061035e919061118d565b6106fa565b60405161037091906111e8565b60405180910390f35b34801561038557600080fd5b506103a0600480360381019061039b919061118d565b61071d565b005b3480156103ae57600080fd5b506103c960048036038101906103c49190611320565b6107b2565b6040516103d69190611212565b60405180910390f35b6060600380546103ee9061138f565b80601f016020809104026020016040519081016040528092919081815260200182805461041a9061138f565b80156104675780601f1061043c57610100808354040283529160200191610467565b820191906000526020600020905b81548152906001019060200180831161044a57829003601f168201915b5050505050905090565b60008061047c610839565b9050610489818585610841565b600191505092915050565b6000600254905090565b6000806104a9610839565b90506104b6858285610a0a565b6104c1858585610a96565b60019150509392505050565b60006012905090565b6000806104e1610839565b90506105028185856104f385896107b2565b6104fd91906113ef565b610841565b600191505092915050565b60008060008373ffffffffffffffffffffffffffffffffffffffff1673ffffffffffffffffffffffffffffffffffffffff168152602001908152602001600020549050919050565b3460065414610599576040517f08c379a000000000000000000000000000000000000000000000000000000000815260040161059090611491565b60405180910390fd5b6105c1826105a56104cd565b600a6105b191906115e4565b836105bc919061162f565b610d0c565b5050565b60065481565b600560009054906101000a900473ffffffffffffffffffffffffffffffffffffffff1681565b6060600480546106009061138f565b80601f016020809104026020016040519081016040528092919081815260200182805461062c9061138f565b80156106795780601f1061064e57610100808354040283529160200191610679565b820191906000526020600020905b81548152906001019060200180831161065c57829003601f168201915b5050505050905090565b60008061068e610839565b9050600061069c82866107b2565b9050838110156106e1576040517f08c379a00000000000000000000000000000000000000000000000000000000081526004016106d8906116fb565b60405180910390fd5b6106ee8286868403610841565b60019250505092915050565b600080610705610839565b9050610712818585610a96565b600191505092915050565b6107256104cd565b600a61073191906115e4565b8161073c919061162f565b6107458361050d565b1115610786576040517f08c379a000000000000000000000000000000000000000000000000000000000815260040161077d90611767565b60405180910390fd5b6107ae826107926104cd565b600a61079e91906115e4565b836107a9919061162f565b610e62565b5050565b6000600160008473ffffffffffffffffffffffffffffffffffffffff1673ffffffffffffffffffffffffffffffffffffffff16815260200190815260200160002060008373ffffffffffffffffffffffffffffffffffffffff1673ffffffffffffffffffffffffffffffffffffffff16815260200190815260200160002054905092915050565b600033905090565b600073ffffffffffffffffffffffffffffffffffffffff168373ffffffffffffffffffffffffffffffffffffffff16036108b0576040517f08c379a00000000000000000000000000000000000000000000000000000000081526004016108a7906117f9565b60405180910390fd5b600073ffffffffffffffffffffffffffffffffffffffff168273ffffffffffffffffffffffffffffffffffffffff160361091f576040517f08c379a00000000000000000000000000000000000000000000000000000000081526004016109169061188b565b60405180910390fd5b80600160008573ffffffffffffffffffffffffffffffffffffffff1673ffffffffffffffffffffffffffffffffffffffff16815260200190815260200160002060008473ffffffffffffffffffffffffffffffffffffffff1673ffffffffffffffffffffffffffffffffffffffff168152602001908152602001600020819055508173ffffffffffffffffffffffffffffffffffffffff168373ffffffffffffffffffffffffffffffffffffffff167f8c5be1e5ebec7d5bd14f71427d1e84f3dd0314c0f7b2291e5b200ac8c7c3b925836040516109fd9190611212565b60405180910390a3505050565b6000610a1684846107b2565b90507fffffffffffffffffffffffffffffffffffffffffffffffffffffffffffffffff8114610a905781811015610a82576040517f08c379a0000000000000000000000000000000000000000000000000000000008152600401610a79906118f7565b60405180910390fd5b610a8f8484848403610841565b5b50505050565b600073ffffffffffffffffffffffffffffffffffffffff168373ffffffffffffffffffffffffffffffffffffffff1603610b05576040517f08c379a0000000000000000000000000000000000000000000000000000000008152600401610afc90611989565b60405180910390fd5b600073ffffffffffffffffffffffffffffffffffffffff168273ffffffffffffffffffffffffffffffffffffffff1603610b74576040517f08c379a0000000000000000000000000000000000000000000000000000000008152600401610b6b90611a1b565b60405180910390fd5b610b7f83838361102f565b60008060008573ffffffffffffffffffffffffffffffffffffffff1673ffffffffffffffffffffffffffffffffffffffff16815260200190815260200160002054905081811015610c05576040517f08c379a0000000000000000000000000000000000000000000000000000000008152600401610bfc90611aad565b60405180910390fd5b8181036000808673ffffffffffffffffffffffffffffffffffffffff1673ffffffffffffffffffffffffffffffffffffffff16815260200190815260200160002081905550816000808573ffffffffffffffffffffffffffffffffffffffff1673ffffffffffffffffffffffffffffffffffffffff168152602001908152602001600020600082825401925050819055508273ffffffffffffffffffffffffffffffffffffffff168473ffffffffffffffffffffffffffffffffffffffff167fddf252ad1be2c89b69c2b068fc378daa952ba7f163c4a11628f55a4df523b3ef84604051610cf39190611212565b60405180910390a3610d06848484611034565b50505050565b600073ffffffffffffffffffffffffffffffffffffffff168273ffffffffffffffffffffffffffffffffffffffff1603610d7b576040517f08c379a0000000000000000000000000000000000000000000000000000000008152600401610d7290611b19565b60405180910390fd5b610d876000838361102f565b8060026000828254610d9991906113ef565b92505081905550806000808473ffffffffffffffffffffffffffffffffffffffff1673ffffffffffffffffffffffffffffffffffffffff168152602001908152602001600020600082825401925050819055508173ffffffffffffffffffffffffffffffffffffffff16600073ffffffffffffffffffffffffffffffffffffffff167fddf252ad1be2c89b69c2b068fc378daa952ba7f163c4a11628f55a4df523b3ef83604051610e4a9190611212565b60405180910390a3610e5e60008383611034565b5050565b600073ffffffffffffffffffffffffffffffffffffffff168273ffffffffffffffffffffffffffffffffffffffff1603610ed1576040517f08c379a0000000000000000000000000000000000000000000000000000000008152600401610ec890611bab565b60405180910390fd5b610edd8260008361102f565b60008060008473ffffffffffffffffffffffffffffffffffffffff1673ffffffffffffffffffffffffffffffffffffffff16815260200190815260200160002054905081811015610f63576040517f08c379a0000000000000000000000000000000000000000000000000000000008152600401610f5a90611c3d565b60405180910390fd5b8181036000808573ffffffffffffffffffffffffffffffffffffffff1673ffffffffffffffffffffffffffffffffffffffff1681526020019081526020016000208190555081600260008282540392505081905550600073ffffffffffffffffffffffffffffffffffffffff168373ffffffffffffffffffffffffffffffffffffffff167fddf252ad1be2c89b69c2b068fc378daa952ba7f163c4a11628f55a4df523b3ef846040516110169190611212565b60405180910390a361102a83600084611034565b505050565b505050565b505050565b600081519050919050565b600082825260208201905092915050565b60005b83811015611073578082015181840152602081019050611058565b83811115611082576000848401525b50505050565b6000601f19601f8301169050919050565b60006110a482611039565b6110ae8185611044565b93506110be818560208601611055565b6110c781611088565b840191505092915050565b600060208201905081810360008301526110ec8184611099565b905092915050565b600080fd5b600073ffffffffffffffffffffffffffffffffffffffff82169050919050565b6000611124826110f9565b9050919050565b61113481611119565b811461113f57600080fd5b50565b6000813590506111518161112b565b92915050565b6000819050919050565b61116a81611157565b811461117557600080fd5b50565b60008135905061118781611161565b92915050565b600080604083850312156111a4576111a36110f4565b5b60006111b285828601611142565b92505060206111c385828601611178565b9150509250929050565b60008115159050919050565b6111e2816111cd565b82525050565b60006020820190506111fd60008301846111d9565b92915050565b61120c81611157565b82525050565b60006020820190506112276000830184611203565b92915050565b600080600060608486031215611246576112456110f4565b5b600061125486828701611142565b935050602061126586828701611142565b925050604061127686828701611178565b9150509250925092565b600060ff82169050919050565b61129681611280565b82525050565b60006020820190506112b1600083018461128d565b92915050565b6000602082840312156112cd576112cc6110f4565b5b60006112db84828501611142565b91505092915050565b60006112ef826110f9565b9050919050565b6112ff816112e4565b82525050565b600060208201905061131a60008301846112f6565b92915050565b60008060408385031215611337576113366110f4565b5b600061134585828601611142565b925050602061135685828601611142565b9150509250929050565b7f4e487b7100000000000000000000000000000000000000000000000000000000600052602260045260246000fd5b600060028204905060018216806113a757607f821691505b6020821081036113ba576113b9611360565b5b50919050565b7f4e487b7100000000000000000000000000000000000000000000000000000000600052601160045260246000fd5b60006113fa82611157565b915061140583611157565b9250827fffffffffffffffffffffffffffffffffffffffffffffffffffffffffffffffff0382111561143a576114396113c0565b5b828201905092915050565b7f696e73756666696369656e7420616d6f756e7400000000000000000000000000600082015250565b600061147b601383611044565b915061148682611445565b602082019050919050565b600060208201905081810360008301526114aa8161146e565b9050919050565b60008160011c9050919050565b6000808291508390505b6001851115611508578086048111156114e4576114e36113c0565b5b60018516156114f35780820291505b8081029050611501856114b1565b94506114c8565b94509492505050565b60008261152157600190506115dd565b8161152f57600090506115dd565b8160018114611545576002811461154f5761157e565b60019150506115dd565b60ff841115611561576115606113c0565b5b8360020a915084821115611578576115776113c0565b5b506115dd565b5060208310610133831016604e8410600b84101617156115b35782820a9050838111156115ae576115ad6113c0565b5b6115dd565b6115c084848460016114be565b925090508184048111156115d7576115d66113c0565b5b81810290505b9392505050565b60006115ef82611157565b91506115fa83611280565b92506116277fffffffffffffffffffffffffffffffffffffffffffffffffffffffffffffffff8484611511565b905092915050565b600061163a82611157565b915061164583611157565b9250817fffffffffffffffffffffffffffffffffffffffffffffffffffffffffffffffff048311821515161561167e5761167d6113c0565b5b828202905092915050565b7f45524332303a2064656372656173656420616c6c6f77616e63652062656c6f7760008201527f207a65726f000000000000000000000000000000000000000000000000000000602082015250565b60006116e5602583611044565b91506116f082611689565b604082019050919050565b60006020820190508181036000830152611714816116d8565b9050919050565b7f746f6b656e20636f756e74206973206e6f7420656e6f75676800000000000000600082015250565b6000611751601983611044565b915061175c8261171b565b602082019050919050565b6000602082019050818103600083015261178081611744565b9050919050565b7f45524332303a20617070726f76652066726f6d20746865207a65726f2061646460008201527f7265737300000000000000000000000000000000000000000000000000000000602082015250565b60006117e3602483611044565b91506117ee82611787565b604082019050919050565b60006020820190508181036000830152611812816117d6565b9050919050565b7f45524332303a20617070726f766520746f20746865207a65726f20616464726560008201527f7373000000000000000000000000000000000000000000000000000000000000602082015250565b6000611875602283611044565b915061188082611819565b604082019050919050565b600060208201905081810360008301526118a481611868565b9050919050565b7f45524332303a20696e73756666696369656e7420616c6c6f77616e6365000000600082015250565b60006118e1601d83611044565b91506118ec826118ab565b602082019050919050565b60006020820190508181036000830152611910816118d4565b9050919050565b7f45524332303a207472616e736665722066726f6d20746865207a65726f20616460008201527f6472657373000000000000000000000000000000000000000000000000000000602082015250565b6000611973602583611044565b915061197e82611917565b604082019050919050565b600060208201905081810360008301526119a281611966565b9050919050565b7f45524332303a207472616e7366657220746f20746865207a65726f206164647260008201527f6573730000000000000000000000000000000000000000000000000000000000602082015250565b6000611a05602383611044565b9150611a10826119a9565b604082019050919050565b60006020820190508181036000830152611a34816119f8565b9050919050565b7f45524332303a207472616e7366657220616d6f756e742065786365656473206260008201527f616c616e63650000000000000000000000000000000000000000000000000000602082015250565b6000611a97602683611044565b9150611aa282611a3b565b604082019050919050565b60006020820190508181036000830152611ac681611a8a565b9050919050565b7f45524332303a206d696e7420746f20746865207a65726f206164647265737300600082015250565b6000611b03601f83611044565b9150611b0e82611acd565b602082019050919050565b60006020820190508181036000830152611b3281611af6565b9050919050565b7f45524332303a206275726e2066726f6d20746865207a65726f2061646472657360008201527f7300000000000000000000000000000000000000000000000000000000000000602082015250565b6000611b95602183611044565b9150611ba082611b39565b604082019050919050565b60006020820190508181036000830152611bc481611b88565b9050919050565b7f45524332303a206275726e20616d6f756e7420657863656564732062616c616e60008201527f6365000000000000000000000000000000000000000000000000000000000000602082015250565b6000611c27602283611044565b9150611c3282611bcb565b604082019050919050565b60006020820190508181036000830152611c5681611c1a565b905091905056fea2646970667358221220e44f09c23651fccf71b2caf8bad58463e3ebac6da61c9e440fc875c9a911a50464736f6c634300080f0033",
  "immutableReferences": {},
  "source": "// SPDX-License-Identifier: MIT\r\npragma solidity 0.8.15;\r\n\r\nimport \"@openzeppelin/contracts/token/ERC20/ERC20.sol\";\r\n\r\ncontract EcoCreditToken is ERC20 {\r\n    address payable public EcoChainPlatformOwner;\r\n    uint public tokenPrice;\r\n\r\n    constructor(uint initTokenPrice) ERC20(\"EcoCredit\", \"ECR\") {\r\n        EcoChainPlatformOwner = payable(msg.sender);\r\n        tokenPrice = initTokenPrice;\r\n        _mint(EcoChainPlatformOwner, 1 * 10 ** decimals());\r\n    }\r\n\r\n    modifier onlyPlatformOwner{\r\n        require(msg.sender != EcoChainPlatformOwner,\"you are not a platform owner\");\r\n        _;\r\n    }\r\n\r\n    function mintToken(address _to,uint _tokenCount) public payable {\r\n        require(tokenPrice == msg.value,\"insufficient amount\");\r\n        _mint(_to,_tokenCount * 10 ** decimals());\r\n    }\r\n\r\n    function burnToken(address _address,uint _tokenCount) public {\r\n        require(balanceOf(_address) <= _tokenCount * 10 ** decimals(),\"token count is not enough\" );\r\n        _burn(_address, _tokenCount * 10 ** decimals());\r\n    }\r\n}",
  "sourcePath": "C:\\GitHub\\EcoChain\\contracts\\EcoCreditToken.sol",
  "compiler": {
    "name": "solc",
    "version": "0.8.15+commit.e14f2714.Emscripten.clang"
  },
  "schemaVersion": "3.4.15",
  "updatedAt": "2023-08-18T16:49:41.701Z",
  "networkType": "ethereum",
  "devdoc": {
    "kind": "dev",
    "methods": {
      "allowance(address,address)": {
        "details": "See {IERC20-allowance}."
      },
      "approve(address,uint256)": {
        "details": "See {IERC20-approve}. NOTE: If `amount` is the maximum `uint256`, the allowance is not updated on `transferFrom`. This is semantically equivalent to an infinite approval. Requirements: - `spender` cannot be the zero address."
      },
      "balanceOf(address)": {
        "details": "See {IERC20-balanceOf}."
      },
      "decimals()": {
        "details": "Returns the number of decimals used to get its user representation. For example, if `decimals` equals `2`, a balance of `505` tokens should be displayed to a user as `5.05` (`505 / 10 ** 2`). Tokens usually opt for a value of 18, imitating the relationship between Ether and Wei. This is the default value returned by this function, unless it's overridden. NOTE: This information is only used for _display_ purposes: it in no way affects any of the arithmetic of the contract, including {IERC20-balanceOf} and {IERC20-transfer}."
      },
      "decreaseAllowance(address,uint256)": {
        "details": "Atomically decreases the allowance granted to `spender` by the caller. This is an alternative to {approve} that can be used as a mitigation for problems described in {IERC20-approve}. Emits an {Approval} event indicating the updated allowance. Requirements: - `spender` cannot be the zero address. - `spender` must have allowance for the caller of at least `subtractedValue`."
      },
      "increaseAllowance(address,uint256)": {
        "details": "Atomically increases the allowance granted to `spender` by the caller. This is an alternative to {approve} that can be used as a mitigation for problems described in {IERC20-approve}. Emits an {Approval} event indicating the updated allowance. Requirements: - `spender` cannot be the zero address."
      },
      "name()": {
        "details": "Returns the name of the token."
      },
      "symbol()": {
        "details": "Returns the symbol of the token, usually a shorter version of the name."
      },
      "totalSupply()": {
        "details": "See {IERC20-totalSupply}."
      },
      "transfer(address,uint256)": {
        "details": "See {IERC20-transfer}. Requirements: - `to` cannot be the zero address. - the caller must have a balance of at least `amount`."
      },
      "transferFrom(address,address,uint256)": {
        "details": "See {IERC20-transferFrom}. Emits an {Approval} event indicating the updated allowance. This is not required by the EIP. See the note at the beginning of {ERC20}. NOTE: Does not update the allowance if the current allowance is the maximum `uint256`. Requirements: - `from` and `to` cannot be the zero address. - `from` must have a balance of at least `amount`. - the caller must have allowance for ``from``'s tokens of at least `amount`."
      }
    },
    "version": 1
  },
  "userdoc": {
    "kind": "user",
    "methods": {},
    "version": 1
  }
}