{
  "contractName": "EcoCreditToken",
  "abi": [
    {
      "inputs": [
        {
          "internalType": "uint256",
          "name": "initTokenPrice",
          "type": "uint256"
        }
      ],
      "stateMutability": "nonpayable",
      "type": "constructor"
    },
    {
      "anonymous": false,
      "inputs": [
        {
          "indexed": true,
          "internalType": "address",
          "name": "owner",
          "type": "address"
        },
        {
          "indexed": true,
          "internalType": "address",
          "name": "spender",
          "type": "address"
        },
        {
          "indexed": false,
          "internalType": "uint256",
          "name": "value",
          "type": "uint256"
        }
      ],
      "name": "Approval",
      "type": "event"
    },
    {
      "anonymous": false,
      "inputs": [
        {
          "indexed": true,
          "internalType": "address",
          "name": "from",
          "type": "address"
        },
        {
          "indexed": true,
          "internalType": "address",
          "name": "to",
          "type": "address"
        },
        {
          "indexed": false,
          "internalType": "uint256",
          "name": "value",
          "type": "uint256"
        }
      ],
      "name": "Transfer",
      "type": "event"
    },
    {
      "inputs": [],
      "name": "EcoChainPlatformOwner",
      "outputs": [
        {
          "internalType": "address payable",
          "name": "",
          "type": "address"
        }
      ],
      "stateMutability": "view",
      "type": "function",
      "constant": true
    },
    {
      "inputs": [
        {
          "internalType": "address",
          "name": "",
          "type": "address"
        }
      ],
      "name": "GovernmentAccounts",
      "outputs": [
        {
          "internalType": "bool",
          "name": "",
          "type": "bool"
        }
      ],
      "stateMutability": "view",
      "type": "function",
      "constant": true
    },
    {
      "inputs": [
        {
          "internalType": "address",
          "name": "",
          "type": "address"
        }
      ],
      "name": "IndustryAccounts",
      "outputs": [
        {
          "internalType": "bool",
          "name": "",
          "type": "bool"
        }
      ],
      "stateMutability": "view",
      "type": "function",
      "constant": true
    },
    {
      "inputs": [
        {
          "internalType": "address",
          "name": "owner",
          "type": "address"
        },
        {
          "internalType": "address",
          "name": "spender",
          "type": "address"
        }
      ],
      "name": "allowance",
      "outputs": [
        {
          "internalType": "uint256",
          "name": "",
          "type": "uint256"
        }
      ],
      "stateMutability": "view",
      "type": "function",
      "constant": true
    },
    {
      "inputs": [
        {
          "internalType": "address",
          "name": "spender",
          "type": "address"
        },
        {
          "internalType": "uint256",
          "name": "amount",
          "type": "uint256"
        }
      ],
      "name": "approve",
      "outputs": [
        {
          "internalType": "bool",
          "name": "",
          "type": "bool"
        }
      ],
      "stateMutability": "nonpayable",
      "type": "function"
    },
    {
      "inputs": [
        {
          "internalType": "address",
          "name": "account",
          "type": "address"
        }
      ],
      "name": "balanceOf",
      "outputs": [
        {
          "internalType": "uint256",
          "name": "",
          "type": "uint256"
        }
      ],
      "stateMutability": "view",
      "type": "function",
      "constant": true
    },
    {
      "inputs": [],
      "name": "decimals",
      "outputs": [
        {
          "internalType": "uint8",
          "name": "",
          "type": "uint8"
        }
      ],
      "stateMutability": "view",
      "type": "function",
      "constant": true
    },
    {
      "inputs": [
        {
          "internalType": "address",
          "name": "spender",
          "type": "address"
        },
        {
          "internalType": "uint256",
          "name": "subtractedValue",
          "type": "uint256"
        }
      ],
      "name": "decreaseAllowance",
      "outputs": [
        {
          "internalType": "bool",
          "name": "",
          "type": "bool"
        }
      ],
      "stateMutability": "nonpayable",
      "type": "function"
    },
    {
      "inputs": [
        {
          "internalType": "address",
          "name": "spender",
          "type": "address"
        },
        {
          "internalType": "uint256",
          "name": "addedValue",
          "type": "uint256"
        }
      ],
      "name": "increaseAllowance",
      "outputs": [
        {
          "internalType": "bool",
          "name": "",
          "type": "bool"
        }
      ],
      "stateMutability": "nonpayable",
      "type": "function"
    },
    {
      "inputs": [],
      "name": "name",
      "outputs": [
        {
          "internalType": "string",
          "name": "",
          "type": "string"
        }
      ],
      "stateMutability": "view",
      "type": "function",
      "constant": true
    },
    {
      "inputs": [],
      "name": "symbol",
      "outputs": [
        {
          "internalType": "string",
          "name": "",
          "type": "string"
        }
      ],
      "stateMutability": "view",
      "type": "function",
      "constant": true
    },
    {
      "inputs": [],
      "name": "tokenPrice",
      "outputs": [
        {
          "internalType": "uint256",
          "name": "",
          "type": "uint256"
        }
      ],
      "stateMutability": "view",
      "type": "function",
      "constant": true
    },
    {
      "inputs": [],
      "name": "totalSupply",
      "outputs": [
        {
          "internalType": "uint256",
          "name": "",
          "type": "uint256"
        }
      ],
      "stateMutability": "view",
      "type": "function",
      "constant": true
    },
    {
      "inputs": [
        {
          "internalType": "address",
          "name": "to",
          "type": "address"
        },
        {
          "internalType": "uint256",
          "name": "amount",
          "type": "uint256"
        }
      ],
      "name": "transfer",
      "outputs": [
        {
          "internalType": "bool",
          "name": "",
          "type": "bool"
        }
      ],
      "stateMutability": "nonpayable",
      "type": "function"
    },
    {
      "inputs": [
        {
          "internalType": "address",
          "name": "from",
          "type": "address"
        },
        {
          "internalType": "address",
          "name": "to",
          "type": "address"
        },
        {
          "internalType": "uint256",
          "name": "amount",
          "type": "uint256"
        }
      ],
      "name": "transferFrom",
      "outputs": [
        {
          "internalType": "bool",
          "name": "",
          "type": "bool"
        }
      ],
      "stateMutability": "nonpayable",
      "type": "function"
    },
    {
      "inputs": [
        {
          "internalType": "address",
          "name": "_address",
          "type": "address"
        },
        {
          "internalType": "uint256",
          "name": "_tokenCount",
          "type": "uint256"
        }
      ],
      "name": "burnToken",
      "outputs": [],
      "stateMutability": "nonpayable",
      "type": "function"
    },
    {
      "inputs": [
        {
          "internalType": "address",
          "name": "_account",
          "type": "address"
        }
      ],
      "name": "grantGovernmentPrivilege",
      "outputs": [],
      "stateMutability": "nonpayable",
      "type": "function"
    },
    {
      "inputs": [
        {
          "internalType": "uint256",
          "name": "newPrice",
          "type": "uint256"
        }
      ],
      "name": "setTokenPrice",
      "outputs": [],
      "stateMutability": "nonpayable",
      "type": "function"
    },
    {
      "inputs": [
        {
          "internalType": "address",
          "name": "_industry",
          "type": "address"
        },
        {
          "internalType": "uint256",
          "name": "_amount",
          "type": "uint256"
        }
      ],
      "name": "initialAllowance",
      "outputs": [],
      "stateMutability": "nonpayable",
      "type": "function"
    },
    {
      "inputs": [
        {
          "internalType": "address",
          "name": "_account",
          "type": "address"
        }
      ],
      "name": "grantIndustryPrivilege",
      "outputs": [],
      "stateMutability": "nonpayable",
      "type": "function"
    },
    {
      "inputs": [
        {
          "internalType": "address",
          "name": "_to",
          "type": "address"
        },
        {
          "internalType": "uint256",
          "name": "_tokenCount",
          "type": "uint256"
        },
        {
          "internalType": "address payable",
          "name": "_govAddress",
          "type": "address"
        },
        {
          "internalType": "uint256",
          "name": "_taxFee",
          "type": "uint256"
        }
      ],
      "name": "buyToken",
      "outputs": [],
      "stateMutability": "payable",
      "type": "function",
      "payable": true
    },
    {
      "inputs": [
        {
          "internalType": "address",
          "name": "_to",
          "type": "address"
        },
        {
          "internalType": "uint256",
          "name": "_amount",
          "type": "uint256"
        }
      ],
      "name": "tradeCarbonCredits",
      "outputs": [],
      "stateMutability": "nonpayable",
      "type": "function"
    }
  ],
  "bytecode": "0x60806040523480156200001157600080fd5b50604051620031ea380380620031ea833981810160405281019062000037919062000337565b6040518060400160405280600981526020017f45636f43726564697400000000000000000000000000000000000000000000008152506040518060400160405280600381526020017f45435200000000000000000000000000000000000000000000000000000000008152508160039081620000b49190620005d9565b508060049081620000c69190620005d9565b50505033600560006101000a81548173ffffffffffffffffffffffffffffffffffffffff021916908373ffffffffffffffffffffffffffffffffffffffff1602179055508060068190555062000170600560009054906101000a900473ffffffffffffffffffffffffffffffffffffffff16620001486200017760201b60201c565b600a62000156919062000850565b6064620001649190620008a1565b6200018060201b60201c565b5062000a10565b60006012905090565b600073ffffffffffffffffffffffffffffffffffffffff168273ffffffffffffffffffffffffffffffffffffffff1603620001f2576040517f08c379a0000000000000000000000000000000000000000000000000000000008152600401620001e99062000963565b60405180910390fd5b6200020660008383620002ed60201b60201c565b80600260008282546200021a919062000985565b92505081905550806000808473ffffffffffffffffffffffffffffffffffffffff1673ffffffffffffffffffffffffffffffffffffffff168152602001908152602001600020600082825401925050819055508173ffffffffffffffffffffffffffffffffffffffff16600073ffffffffffffffffffffffffffffffffffffffff167fddf252ad1be2c89b69c2b068fc378daa952ba7f163c4a11628f55a4df523b3ef83604051620002cd9190620009f3565b60405180910390a3620002e960008383620002f260201b60201c565b5050565b505050565b505050565b600080fd5b6000819050919050565b6200031181620002fc565b81146200031d57600080fd5b50565b600081519050620003318162000306565b92915050565b60006020828403121562000350576200034f620002f7565b5b6000620003608482850162000320565b91505092915050565b600081519050919050565b7f4e487b7100000000000000000000000000000000000000000000000000000000600052604160045260246000fd5b7f4e487b7100000000000000000000000000000000000000000000000000000000600052602260045260246000fd5b60006002820490506001821680620003eb57607f821691505b602082108103620004015762000400620003a3565b5b50919050565b60008190508160005260206000209050919050565b60006020601f8301049050919050565b600082821b905092915050565b6000600883026200046b7fffffffffffffffffffffffffffffffffffffffffffffffffffffffffffffffff826200042c565b6200047786836200042c565b95508019841693508086168417925050509392505050565b6000819050919050565b6000620004ba620004b4620004ae84620002fc565b6200048f565b620002fc565b9050919050565b6000819050919050565b620004d68362000499565b620004ee620004e582620004c1565b84845462000439565b825550505050565b600090565b62000505620004f6565b62000512818484620004cb565b505050565b5b818110156200053a576200052e600082620004fb565b60018101905062000518565b5050565b601f8211156200058957620005538162000407565b6200055e846200041c565b810160208510156200056e578190505b620005866200057d856200041c565b83018262000517565b50505b505050565b600082821c905092915050565b6000620005ae600019846008026200058e565b1980831691505092915050565b6000620005c983836200059b565b9150826002028217905092915050565b620005e48262000369565b67ffffffffffffffff8111156200060057620005ff62000374565b5b6200060c8254620003d2565b620006198282856200053e565b600060209050601f8311600181146200065157600084156200063c578287015190505b620006488582620005bb565b865550620006b8565b601f198416620006618662000407565b60005b828110156200068b5784890151825560018201915060208501945060208101905062000664565b86831015620006ab5784890151620006a7601f8916826200059b565b8355505b6001600288020188555050505b505050505050565b7f4e487b7100000000000000000000000000000000000000000000000000000000600052601160045260246000fd5b60008160011c9050919050565b6000808291508390505b60018511156200074e57808604811115620007265762000725620006c0565b5b6001851615620007365780820291505b80810290506200074685620006ef565b945062000706565b94509492505050565b6000826200076957600190506200083c565b816200077957600090506200083c565b81600181146200079257600281146200079d57620007d3565b60019150506200083c565b60ff841115620007b257620007b1620006c0565b5b8360020a915084821115620007cc57620007cb620006c0565b5b506200083c565b5060208310610133831016604e8410600b84101617156200080d5782820a905083811115620008075762000806620006c0565b5b6200083c565b6200081c8484846001620006fc565b92509050818404811115620008365762000835620006c0565b5b81810290505b9392505050565b600060ff82169050919050565b60006200085d82620002fc565b91506200086a8362000843565b9250620008997fffffffffffffffffffffffffffffffffffffffffffffffffffffffffffffffff848462000757565b905092915050565b6000620008ae82620002fc565b9150620008bb83620002fc565b9250817fffffffffffffffffffffffffffffffffffffffffffffffffffffffffffffffff0483118215151615620008f757620008f6620006c0565b5b828202905092915050565b600082825260208201905092915050565b7f45524332303a206d696e7420746f20746865207a65726f206164647265737300600082015250565b60006200094b601f8362000902565b9150620009588262000913565b602082019050919050565b600060208201905081810360008301526200097e816200093c565b9050919050565b60006200099282620002fc565b91506200099f83620002fc565b9250827fffffffffffffffffffffffffffffffffffffffffffffffffffffffffffffffff03821115620009d757620009d6620006c0565b5b828201905092915050565b620009ed81620002fc565b82525050565b600060208201905062000a0a6000830184620009e2565b92915050565b6127ca8062000a206000396000f3fe6080604052600436106101355760003560e01c806370a08231116100ab578063a457c2d71161006f578063a457c2d71461042d578063a9059cbb1461046a578063d1df306c146104a7578063d22b2ed0146104d0578063dd62ed3e146104f9578063f13e83311461053657610135565b806370a08231146103535780637ff9b5961461039057806387283718146103bb578063946f89e9146103d757806395d89b411461040257610135565b8063313ce567116100fd578063313ce5671461024757806333a0df0d14610272578063395093511461029b5780635c03a1cd146102d85780635fe01930146103015780636a61e5fc1461032a57610135565b806306fdde031461013a578063095ea7b3146101655780630a8c8f20146101a257806318160ddd146101df57806323b872dd1461020a575b600080fd5b34801561014657600080fd5b5061014f610573565b60405161015c9190611875565b60405180910390f35b34801561017157600080fd5b5061018c60048036038101906101879190611930565b610605565b604051610199919061198b565b60405180910390f35b3480156101ae57600080fd5b506101c960048036038101906101c491906119a6565b610628565b6040516101d6919061198b565b60405180910390f35b3480156101eb57600080fd5b506101f4610648565b60405161020191906119e2565b60405180910390f35b34801561021657600080fd5b50610231600480360381019061022c91906119fd565b610652565b60405161023e919061198b565b60405180910390f35b34801561025357600080fd5b5061025c610681565b6040516102699190611a6c565b60405180910390f35b34801561027e57600080fd5b5061029960048036038101906102949190611930565b61068a565b005b3480156102a757600080fd5b506102c260048036038101906102bd9190611930565b61088f565b6040516102cf919061198b565b60405180910390f35b3480156102e457600080fd5b506102ff60048036038101906102fa9190611930565b6108c6565b005b34801561030d57600080fd5b50610328600480360381019061032391906119a6565b610a38565b005b34801561033657600080fd5b50610351600480360381019061034c9190611a87565b610a93565b005b34801561035f57600080fd5b5061037a600480360381019061037591906119a6565b610b30565b60405161038791906119e2565b60405180910390f35b34801561039c57600080fd5b506103a5610b78565b6040516103b291906119e2565b60405180910390f35b6103d560048036038101906103d09190611af2565b610b7e565b005b3480156103e357600080fd5b506103ec610cca565b6040516103f99190611b68565b60405180910390f35b34801561040e57600080fd5b50610417610cf0565b6040516104249190611875565b60405180910390f35b34801561043957600080fd5b50610454600480360381019061044f9190611930565b610d82565b604051610461919061198b565b60405180910390f35b34801561047657600080fd5b50610491600480360381019061048c9190611930565b610df9565b60405161049e919061198b565b60405180910390f35b3480156104b357600080fd5b506104ce60048036038101906104c99190611930565b610e1c565b005b3480156104dc57600080fd5b506104f760048036038101906104f291906119a6565b610eb1565b005b34801561050557600080fd5b50610520600480360381019061051b9190611b83565b610f35565b60405161052d91906119e2565b60405180910390f35b34801561054257600080fd5b5061055d600480360381019061055891906119a6565b610fbc565b60405161056a919061198b565b60405180910390f35b60606003805461058290611bf2565b80601f01602080910402602001604051908101604052809291908181526020018280546105ae90611bf2565b80156105fb5780601f106105d0576101008083540402835291602001916105fb565b820191906000526020600020905b8154815290600101906020018083116105de57829003601f168201915b5050505050905090565b600080610610610fdc565b905061061d818585610fe4565b600191505092915050565b60086020528060005260406000206000915054906101000a900460ff1681565b6000600254905090565b60008061065d610fdc565b905061066a8582856111ad565b610675858585611239565b60019150509392505050565b60006012905090565b60011515600760003373ffffffffffffffffffffffffffffffffffffffff1673ffffffffffffffffffffffffffffffffffffffff16815260200190815260200160002060009054906101000a900460ff1615151461071d576040517f08c379a000000000000000000000000000000000000000000000000000000000815260040161071490611c95565b60405180910390fd5b600073ffffffffffffffffffffffffffffffffffffffff168273ffffffffffffffffffffffffffffffffffffffff160361078c576040517f08c379a000000000000000000000000000000000000000000000000000000000815260040161078390611d01565b60405180910390fd5b60011515600860008473ffffffffffffffffffffffffffffffffffffffff1673ffffffffffffffffffffffffffffffffffffffff16815260200190815260200160002060009054906101000a900460ff1615150361081f576040517f08c379a000000000000000000000000000000000000000000000000000000000815260040161081690611d6d565b60405180910390fd5b60008111610862576040517f08c379a000000000000000000000000000000000000000000000000000000000815260040161085990611dd9565b60405180910390fd5b61088b338361086f610681565b600a61087b9190611f5b565b846108869190611fa6565b611239565b5050565b60008061089a610fdc565b90506108bb8185856108ac8589610f35565b6108b69190612000565b610fe4565b600191505092915050565b60011515600860003373ffffffffffffffffffffffffffffffffffffffff1673ffffffffffffffffffffffffffffffffffffffff16815260200190815260200160002060009054906101000a900460ff16151514610959576040517f08c379a0000000000000000000000000000000000000000000000000000000008152600401610950906120c8565b60405180910390fd5b600073ffffffffffffffffffffffffffffffffffffffff168273ffffffffffffffffffffffffffffffffffffffff16036109c8576040517f08c379a00000000000000000000000000000000000000000000000000000000081526004016109bf90612134565b60405180910390fd5b60008111610a0b576040517f08c379a0000000000000000000000000000000000000000000000000000000008152600401610a0290611dd9565b60405180910390fd5b610a343383610a18610681565b600a610a249190611f5b565b84610a2f9190611fa6565b611239565b5050565b6001600860008373ffffffffffffffffffffffffffffffffffffffff1673ffffffffffffffffffffffffffffffffffffffff16815260200190815260200160002060006101000a81548160ff02191690831515021790555050565b60011515600760003373ffffffffffffffffffffffffffffffffffffffff1673ffffffffffffffffffffffffffffffffffffffff16815260200190815260200160002060009054906101000a900460ff16151514610b26576040517f08c379a0000000000000000000000000000000000000000000000000000000008152600401610b1d90611c95565b60405180910390fd5b8060068190555050565b60008060008373ffffffffffffffffffffffffffffffffffffffff1673ffffffffffffffffffffffffffffffffffffffff168152602001908152602001600020549050919050565b60065481565b60011515600860003373ffffffffffffffffffffffffffffffffffffffff1673ffffffffffffffffffffffffffffffffffffffff16815260200190815260200160002060009054906101000a900460ff16151514610c11576040517f08c379a0000000000000000000000000000000000000000000000000000000008152600401610c08906120c8565b60405180910390fd5b3460065414610c55576040517f08c379a0000000000000000000000000000000000000000000000000000000008152600401610c4c906121a0565b60405180910390fd5b610c7d84610c61610681565b600a610c6d9190611f5b565b85610c789190611fa6565b6114af565b8173ffffffffffffffffffffffffffffffffffffffff166108fc829081150290604051600060405180830381858888f19350505050158015610cc3573d6000803e3d6000fd5b5050505050565b600560009054906101000a900473ffffffffffffffffffffffffffffffffffffffff1681565b606060048054610cff90611bf2565b80601f0160208091040260200160405190810160405280929190818152602001828054610d2b90611bf2565b8015610d785780601f10610d4d57610100808354040283529160200191610d78565b820191906000526020600020905b815481529060010190602001808311610d5b57829003601f168201915b5050505050905090565b600080610d8d610fdc565b90506000610d9b8286610f35565b905083811015610de0576040517f08c379a0000000000000000000000000000000000000000000000000000000008152600401610dd790612232565b60405180910390fd5b610ded8286868403610fe4565b60019250505092915050565b600080610e04610fdc565b9050610e11818585611239565b600191505092915050565b610e24610681565b600a610e309190611f5b565b81610e3b9190611fa6565b610e4483610b30565b1015610e85576040517f08c379a0000000000000000000000000000000000000000000000000000000008152600401610e7c9061229e565b60405180910390fd5b610ead82610e91610681565b600a610e9d9190611f5b565b83610ea89190611fa6565b611605565b5050565b6001600760008373ffffffffffffffffffffffffffffffffffffffff1673ffffffffffffffffffffffffffffffffffffffff16815260200190815260200160002060006101000a81548160ff021916908315150217905550610f3233610f15610681565b600a610f219190611f5b565b6064610f2d9190611fa6565b6114af565b50565b6000600160008473ffffffffffffffffffffffffffffffffffffffff1673ffffffffffffffffffffffffffffffffffffffff16815260200190815260200160002060008373ffffffffffffffffffffffffffffffffffffffff1673ffffffffffffffffffffffffffffffffffffffff16815260200190815260200160002054905092915050565b60076020528060005260406000206000915054906101000a900460ff1681565b600033905090565b600073ffffffffffffffffffffffffffffffffffffffff168373ffffffffffffffffffffffffffffffffffffffff1603611053576040517f08c379a000000000000000000000000000000000000000000000000000000000815260040161104a90612330565b60405180910390fd5b600073ffffffffffffffffffffffffffffffffffffffff168273ffffffffffffffffffffffffffffffffffffffff16036110c2576040517f08c379a00000000000000000000000000000000000000000000000000000000081526004016110b9906123c2565b60405180910390fd5b80600160008573ffffffffffffffffffffffffffffffffffffffff1673ffffffffffffffffffffffffffffffffffffffff16815260200190815260200160002060008473ffffffffffffffffffffffffffffffffffffffff1673ffffffffffffffffffffffffffffffffffffffff168152602001908152602001600020819055508173ffffffffffffffffffffffffffffffffffffffff168373ffffffffffffffffffffffffffffffffffffffff167f8c5be1e5ebec7d5bd14f71427d1e84f3dd0314c0f7b2291e5b200ac8c7c3b925836040516111a091906119e2565b60405180910390a3505050565b60006111b98484610f35565b90507fffffffffffffffffffffffffffffffffffffffffffffffffffffffffffffffff81146112335781811015611225576040517f08c379a000000000000000000000000000000000000000000000000000000000815260040161121c9061242e565b60405180910390fd5b6112328484848403610fe4565b5b50505050565b600073ffffffffffffffffffffffffffffffffffffffff168373ffffffffffffffffffffffffffffffffffffffff16036112a8576040517f08c379a000000000000000000000000000000000000000000000000000000000815260040161129f906124c0565b60405180910390fd5b600073ffffffffffffffffffffffffffffffffffffffff168273ffffffffffffffffffffffffffffffffffffffff1603611317576040517f08c379a000000000000000000000000000000000000000000000000000000000815260040161130e90612552565b60405180910390fd5b6113228383836117d2565b60008060008573ffffffffffffffffffffffffffffffffffffffff1673ffffffffffffffffffffffffffffffffffffffff168152602001908152602001600020549050818110156113a8576040517f08c379a000000000000000000000000000000000000000000000000000000000815260040161139f906125e4565b60405180910390fd5b8181036000808673ffffffffffffffffffffffffffffffffffffffff1673ffffffffffffffffffffffffffffffffffffffff16815260200190815260200160002081905550816000808573ffffffffffffffffffffffffffffffffffffffff1673ffffffffffffffffffffffffffffffffffffffff168152602001908152602001600020600082825401925050819055508273ffffffffffffffffffffffffffffffffffffffff168473ffffffffffffffffffffffffffffffffffffffff167fddf252ad1be2c89b69c2b068fc378daa952ba7f163c4a11628f55a4df523b3ef8460405161149691906119e2565b60405180910390a36114a98484846117d7565b50505050565b600073ffffffffffffffffffffffffffffffffffffffff168273ffffffffffffffffffffffffffffffffffffffff160361151e576040517f08c379a000000000000000000000000000000000000000000000000000000000815260040161151590612650565b60405180910390fd5b61152a600083836117d2565b806002600082825461153c9190612000565b92505081905550806000808473ffffffffffffffffffffffffffffffffffffffff1673ffffffffffffffffffffffffffffffffffffffff168152602001908152602001600020600082825401925050819055508173ffffffffffffffffffffffffffffffffffffffff16600073ffffffffffffffffffffffffffffffffffffffff167fddf252ad1be2c89b69c2b068fc378daa952ba7f163c4a11628f55a4df523b3ef836040516115ed91906119e2565b60405180910390a3611601600083836117d7565b5050565b600073ffffffffffffffffffffffffffffffffffffffff168273ffffffffffffffffffffffffffffffffffffffff1603611674576040517f08c379a000000000000000000000000000000000000000000000000000000000815260040161166b906126e2565b60405180910390fd5b611680826000836117d2565b60008060008473ffffffffffffffffffffffffffffffffffffffff1673ffffffffffffffffffffffffffffffffffffffff16815260200190815260200160002054905081811015611706576040517f08c379a00000000000000000000000000000000000000000000000000000000081526004016116fd90612774565b60405180910390fd5b8181036000808573ffffffffffffffffffffffffffffffffffffffff1673ffffffffffffffffffffffffffffffffffffffff1681526020019081526020016000208190555081600260008282540392505081905550600073ffffffffffffffffffffffffffffffffffffffff168373ffffffffffffffffffffffffffffffffffffffff167fddf252ad1be2c89b69c2b068fc378daa952ba7f163c4a11628f55a4df523b3ef846040516117b991906119e2565b60405180910390a36117cd836000846117d7565b505050565b505050565b505050565b600081519050919050565b600082825260208201905092915050565b60005b838110156118165780820151818401526020810190506117fb565b83811115611825576000848401525b50505050565b6000601f19601f8301169050919050565b6000611847826117dc565b61185181856117e7565b93506118618185602086016117f8565b61186a8161182b565b840191505092915050565b6000602082019050818103600083015261188f818461183c565b905092915050565b600080fd5b600073ffffffffffffffffffffffffffffffffffffffff82169050919050565b60006118c78261189c565b9050919050565b6118d7816118bc565b81146118e257600080fd5b50565b6000813590506118f4816118ce565b92915050565b6000819050919050565b61190d816118fa565b811461191857600080fd5b50565b60008135905061192a81611904565b92915050565b6000806040838503121561194757611946611897565b5b6000611955858286016118e5565b92505060206119668582860161191b565b9150509250929050565b60008115159050919050565b61198581611970565b82525050565b60006020820190506119a0600083018461197c565b92915050565b6000602082840312156119bc576119bb611897565b5b60006119ca848285016118e5565b91505092915050565b6119dc816118fa565b82525050565b60006020820190506119f760008301846119d3565b92915050565b600080600060608486031215611a1657611a15611897565b5b6000611a24868287016118e5565b9350506020611a35868287016118e5565b9250506040611a468682870161191b565b9150509250925092565b600060ff82169050919050565b611a6681611a50565b82525050565b6000602082019050611a816000830184611a5d565b92915050565b600060208284031215611a9d57611a9c611897565b5b6000611aab8482850161191b565b91505092915050565b6000611abf8261189c565b9050919050565b611acf81611ab4565b8114611ada57600080fd5b50565b600081359050611aec81611ac6565b92915050565b60008060008060808587031215611b0c57611b0b611897565b5b6000611b1a878288016118e5565b9450506020611b2b8782880161191b565b9350506040611b3c87828801611add565b9250506060611b4d8782880161191b565b91505092959194509250565b611b6281611ab4565b82525050565b6000602082019050611b7d6000830184611b59565b92915050565b60008060408385031215611b9a57611b99611897565b5b6000611ba8858286016118e5565b9250506020611bb9858286016118e5565b9150509250929050565b7f4e487b7100000000000000000000000000000000000000000000000000000000600052602260045260246000fd5b60006002820490506001821680611c0a57607f821691505b602082108103611c1d57611c1c611bc3565b5b50919050565b7f6f6e6c7920676f7665726e6d656e7420617574686f726974792063616e20636860008201527f616e67652074686520746f6b656e207072696365000000000000000000000000602082015250565b6000611c7f6034836117e7565b9150611c8a82611c23565b604082019050919050565b60006020820190508181036000830152611cae81611c72565b9050919050565b7f496e76616c696420616464726573736573000000000000000000000000000000600082015250565b6000611ceb6011836117e7565b9150611cf682611cb5565b602082019050919050565b60006020820190508181036000830152611d1a81611cde565b9050919050565b7f53656c6c6572206d75737420626520616e20696e647573747279000000000000600082015250565b6000611d57601a836117e7565b9150611d6282611d21565b602082019050919050565b60006020820190508181036000830152611d8681611d4a565b9050919050565b7f416d6f756e74206d7573742062652067726561746572207468616e2030000000600082015250565b6000611dc3601d836117e7565b9150611dce82611d8d565b602082019050919050565b60006020820190508181036000830152611df281611db6565b9050919050565b7f4e487b7100000000000000000000000000000000000000000000000000000000600052601160045260246000fd5b60008160011c9050919050565b6000808291508390505b6001851115611e7f57808604811115611e5b57611e5a611df9565b5b6001851615611e6a5780820291505b8081029050611e7885611e28565b9450611e3f565b94509492505050565b600082611e985760019050611f54565b81611ea65760009050611f54565b8160018114611ebc5760028114611ec657611ef5565b6001915050611f54565b60ff841115611ed857611ed7611df9565b5b8360020a915084821115611eef57611eee611df9565b5b50611f54565b5060208310610133831016604e8410600b8410161715611f2a5782820a905083811115611f2557611f24611df9565b5b611f54565b611f378484846001611e35565b92509050818404811115611f4e57611f4d611df9565b5b81810290505b9392505050565b6000611f66826118fa565b9150611f7183611a50565b9250611f9e7fffffffffffffffffffffffffffffffffffffffffffffffffffffffffffffffff8484611e88565b905092915050565b6000611fb1826118fa565b9150611fbc836118fa565b9250817fffffffffffffffffffffffffffffffffffffffffffffffffffffffffffffffff0483118215151615611ff557611ff4611df9565b5b828202905092915050565b600061200b826118fa565b9150612016836118fa565b9250827fffffffffffffffffffffffffffffffffffffffffffffffffffffffffffffffff0382111561204b5761204a611df9565b5b828201905092915050565b7f6f6e6c7920696e64757374727920617574686f726974792063616e206368616e60008201527f67652074686520746f6b656e2070726963650000000000000000000000000000602082015250565b60006120b26032836117e7565b91506120bd82612056565b604082019050919050565b600060208201905081810360008301526120e1816120a5565b9050919050565b7f496e76616c696420616464726573730000000000000000000000000000000000600082015250565b600061211e600f836117e7565b9150612129826120e8565b602082019050919050565b6000602082019050818103600083015261214d81612111565b9050919050565b7f696e73756666696369656e7420616d6f756e7400000000000000000000000000600082015250565b600061218a6013836117e7565b915061219582612154565b602082019050919050565b600060208201905081810360008301526121b98161217d565b9050919050565b7f45524332303a2064656372656173656420616c6c6f77616e63652062656c6f7760008201527f207a65726f000000000000000000000000000000000000000000000000000000602082015250565b600061221c6025836117e7565b9150612227826121c0565b604082019050919050565b6000602082019050818103600083015261224b8161220f565b9050919050565b7f746f6b656e20636f756e74206973206e6f7420656e6f75676800000000000000600082015250565b60006122886019836117e7565b915061229382612252565b602082019050919050565b600060208201905081810360008301526122b78161227b565b9050919050565b7f45524332303a20617070726f76652066726f6d20746865207a65726f2061646460008201527f7265737300000000000000000000000000000000000000000000000000000000602082015250565b600061231a6024836117e7565b9150612325826122be565b604082019050919050565b600060208201905081810360008301526123498161230d565b9050919050565b7f45524332303a20617070726f766520746f20746865207a65726f20616464726560008201527f7373000000000000000000000000000000000000000000000000000000000000602082015250565b60006123ac6022836117e7565b91506123b782612350565b604082019050919050565b600060208201905081810360008301526123db8161239f565b9050919050565b7f45524332303a20696e73756666696369656e7420616c6c6f77616e6365000000600082015250565b6000612418601d836117e7565b9150612423826123e2565b602082019050919050565b600060208201905081810360008301526124478161240b565b9050919050565b7f45524332303a207472616e736665722066726f6d20746865207a65726f20616460008201527f6472657373000000000000000000000000000000000000000000000000000000602082015250565b60006124aa6025836117e7565b91506124b58261244e565b604082019050919050565b600060208201905081810360008301526124d98161249d565b9050919050565b7f45524332303a207472616e7366657220746f20746865207a65726f206164647260008201527f6573730000000000000000000000000000000000000000000000000000000000602082015250565b600061253c6023836117e7565b9150612547826124e0565b604082019050919050565b6000602082019050818103600083015261256b8161252f565b9050919050565b7f45524332303a207472616e7366657220616d6f756e742065786365656473206260008201527f616c616e63650000000000000000000000000000000000000000000000000000602082015250565b60006125ce6026836117e7565b91506125d982612572565b604082019050919050565b600060208201905081810360008301526125fd816125c1565b9050919050565b7f45524332303a206d696e7420746f20746865207a65726f206164647265737300600082015250565b600061263a601f836117e7565b915061264582612604565b602082019050919050565b600060208201905081810360008301526126698161262d565b9050919050565b7f45524332303a206275726e2066726f6d20746865207a65726f2061646472657360008201527f7300000000000000000000000000000000000000000000000000000000000000602082015250565b60006126cc6021836117e7565b91506126d782612670565b604082019050919050565b600060208201905081810360008301526126fb816126bf565b9050919050565b7f45524332303a206275726e20616d6f756e7420657863656564732062616c616e60008201527f6365000000000000000000000000000000000000000000000000000000000000602082015250565b600061275e6022836117e7565b915061276982612702565b604082019050919050565b6000602082019050818103600083015261278d81612751565b905091905056fea2646970667358221220029a3629e69691bc8aa8101ab532fb56cf0b30426ac3d5aee63b45a8df3c67b864736f6c634300080f0033",
  "immutableReferences": {},
  "source": "// SPDX-License-Identifier: MIT\r\npragma solidity 0.8.15;\r\n\r\nimport \"@openzeppelin/contracts/token/ERC20/ERC20.sol\";\r\n\r\ncontract EcoCreditToken is ERC20 {\r\n    address payable public EcoChainPlatformOwner;\r\n    uint public tokenPrice;\r\n\r\n    mapping(address => bool) public GovernmentAccounts;\r\n    mapping(address => bool) public IndustryAccounts;\r\n\r\n    constructor(uint256 initTokenPrice) ERC20(\"EcoCredit\", \"ECR\") {\r\n        EcoChainPlatformOwner = payable(msg.sender);\r\n        tokenPrice = initTokenPrice;\r\n        _mint(EcoChainPlatformOwner, 100 * 10**decimals());\r\n    }\r\n\r\n    modifier onlyPlatformOwner() {\r\n        require(\r\n            msg.sender != EcoChainPlatformOwner,\r\n            \"you are not a platform owner\"\r\n        );\r\n        _;\r\n    }\r\n\r\n    function burnToken(address _address, uint _tokenCount) public {\r\n        require(\r\n            balanceOf(_address) >= _tokenCount * 10 ** decimals(),\r\n            \"token count is not enough\"\r\n        );\r\n        _burn(_address, _tokenCount * 10**decimals());\r\n    }\r\n\r\n    //Gov functionalities\r\n    function grantGovernmentPrivilege(address _account) public {\r\n        GovernmentAccounts[_account] = true;\r\n        _mint(msg.sender, 100 * 10**decimals());\r\n    }\r\n\r\n    modifier onlyGovernment() {\r\n        require(\r\n            GovernmentAccounts[msg.sender] == true,\r\n            \"only government authority can change the token price\"\r\n        );\r\n        _;\r\n    }\r\n\r\n    function setTokenPrice(uint newPrice) public onlyGovernment {\r\n        tokenPrice = newPrice;\r\n    }\r\n\r\n    // initial\r\n    function initialAllowance(address _industry, uint _amount)\r\n        public\r\n        onlyGovernment\r\n    {\r\n        require(_industry != address(0), \"Invalid addresses\");\r\n        require(\r\n            IndustryAccounts[_industry] != true,\r\n            \"Seller must be an industry\"\r\n        );\r\n        require(_amount > 0, \"Amount must be greater than 0\");\r\n        _transfer(msg.sender, _industry, _amount * 10**decimals());\r\n    }\r\n\r\n    //Industry functionalities\r\n    function grantIndustryPrivilege(address _account) public {\r\n        IndustryAccounts[_account] = true;\r\n    }\r\n\r\n    modifier onlyIndustry() {\r\n        require(\r\n            IndustryAccounts[msg.sender] == true,\r\n            \"only industry authority can change the token price\"\r\n        );\r\n        _;\r\n    }\r\n\r\n    function buyToken(\r\n        address _to,\r\n        uint _tokenCount,\r\n        address payable _govAddress,\r\n        uint _taxFee\r\n    ) public payable onlyIndustry {\r\n        require(tokenPrice == msg.value, \"insufficient amount\");\r\n        _mint(_to, _tokenCount * 10**decimals());\r\n        _govAddress.transfer(_taxFee);\r\n    }\r\n\r\n    // Carbon credit trading\r\n    function tradeCarbonCredits(address _to, uint _amount)\r\n        public\r\n        onlyIndustry\r\n    {\r\n        require(_to != address(0), \"Invalid address\");\r\n        require(_amount > 0, \"Amount must be greater than 0\");\r\n        _transfer(msg.sender, _to, _amount * 10**decimals());\r\n    }\r\n}\r\n",
  "sourcePath": "D:\\GitHub\\CodeBreaker\\EcoChain\\contracts\\EcoCreditToken.sol",
  "compiler": {
    "name": "solc",
    "version": "0.8.15+commit.e14f2714.Emscripten.clang"
  },
  "schemaVersion": "3.4.15",
  "updatedAt": "2023-08-18T20:36:44.047Z",
  "networkType": "ethereum",
  "devdoc": {
    "kind": "dev",
    "methods": {
      "allowance(address,address)": {
        "details": "See {IERC20-allowance}."
      },
      "approve(address,uint256)": {
        "details": "See {IERC20-approve}. NOTE: If `amount` is the maximum `uint256`, the allowance is not updated on `transferFrom`. This is semantically equivalent to an infinite approval. Requirements: - `spender` cannot be the zero address."
      },
      "balanceOf(address)": {
        "details": "See {IERC20-balanceOf}."
      },
      "decimals()": {
        "details": "Returns the number of decimals used to get its user representation. For example, if `decimals` equals `2`, a balance of `505` tokens should be displayed to a user as `5.05` (`505 / 10 ** 2`). Tokens usually opt for a value of 18, imitating the relationship between Ether and Wei. This is the default value returned by this function, unless it's overridden. NOTE: This information is only used for _display_ purposes: it in no way affects any of the arithmetic of the contract, including {IERC20-balanceOf} and {IERC20-transfer}."
      },
      "decreaseAllowance(address,uint256)": {
        "details": "Atomically decreases the allowance granted to `spender` by the caller. This is an alternative to {approve} that can be used as a mitigation for problems described in {IERC20-approve}. Emits an {Approval} event indicating the updated allowance. Requirements: - `spender` cannot be the zero address. - `spender` must have allowance for the caller of at least `subtractedValue`."
      },
      "increaseAllowance(address,uint256)": {
        "details": "Atomically increases the allowance granted to `spender` by the caller. This is an alternative to {approve} that can be used as a mitigation for problems described in {IERC20-approve}. Emits an {Approval} event indicating the updated allowance. Requirements: - `spender` cannot be the zero address."
      },
      "name()": {
        "details": "Returns the name of the token."
      },
      "symbol()": {
        "details": "Returns the symbol of the token, usually a shorter version of the name."
      },
      "totalSupply()": {
        "details": "See {IERC20-totalSupply}."
      },
      "transfer(address,uint256)": {
        "details": "See {IERC20-transfer}. Requirements: - `to` cannot be the zero address. - the caller must have a balance of at least `amount`."
      },
      "transferFrom(address,address,uint256)": {
        "details": "See {IERC20-transferFrom}. Emits an {Approval} event indicating the updated allowance. This is not required by the EIP. See the note at the beginning of {ERC20}. NOTE: Does not update the allowance if the current allowance is the maximum `uint256`. Requirements: - `from` and `to` cannot be the zero address. - `from` must have a balance of at least `amount`. - the caller must have allowance for ``from``'s tokens of at least `amount`."
      }
    },
    "version": 1
  },
  "userdoc": {
    "kind": "user",
    "methods": {},
    "version": 1
  }
}