{
  "contractName": "Emission",
  "abi": [
    {
      "anonymous": false,
      "inputs": [
        {
          "indexed": false,
          "internalType": "address",
          "name": "wallet_id",
          "type": "address"
        },
        {
          "indexed": false,
          "internalType": "string",
          "name": "carbon",
          "type": "string"
        },
        {
          "indexed": false,
          "internalType": "string",
          "name": "date",
          "type": "string"
        },
        {
          "indexed": false,
          "internalType": "uint256",
          "name": "fees",
          "type": "uint256"
        }
      ],
      "name": "EmissionData",
      "type": "event"
    },
    {
      "inputs": [],
      "name": "dataCount",
      "outputs": [
        {
          "internalType": "uint256",
          "name": "",
          "type": "uint256"
        }
      ],
      "stateMutability": "view",
      "type": "function",
      "constant": true
    },
    {
      "inputs": [
        {
          "internalType": "uint256",
          "name": "",
          "type": "uint256"
        }
      ],
      "name": "emmis",
      "outputs": [
        {
          "internalType": "address",
          "name": "wallet_id",
          "type": "address"
        },
        {
          "internalType": "string",
          "name": "carbon",
          "type": "string"
        },
        {
          "internalType": "string",
          "name": "date",
          "type": "string"
        },
        {
          "internalType": "uint256",
          "name": "fees",
          "type": "uint256"
        }
      ],
      "stateMutability": "view",
      "type": "function",
      "constant": true
    },
    {
      "inputs": [
        {
          "internalType": "address",
          "name": "_walletID",
          "type": "address"
        },
        {
          "internalType": "string",
          "name": "_carbon",
          "type": "string"
        },
        {
          "internalType": "string",
          "name": "_date",
          "type": "string"
        },
        {
          "internalType": "uint256",
          "name": "_fees",
          "type": "uint256"
        }
      ],
      "name": "createEmissionData",
      "outputs": [],
      "stateMutability": "nonpayable",
      "type": "function"
    }
  ],
  "bytecode": "0x60806040526000805534801561001457600080fd5b50610a97806100246000396000f3fe608060405234801561001057600080fd5b50600436106100415760003560e01c80630c345808146100465780635da40c4714610079578063d78d272a14610097575b600080fd5b610060600480360381019061005b9190610388565b6100b3565b604051610070949392919061049e565b60405180910390f35b610081610213565b60405161008e91906104f1565b60405180910390f35b6100b160048036038101906100ac919061066d565b610219565b005b60016020528060005260406000206000915090508060000160009054906101000a900473ffffffffffffffffffffffffffffffffffffffff16908060010180546100fc9061073b565b80601f01602080910402602001604051908101604052809291908181526020018280546101289061073b565b80156101755780601f1061014a57610100808354040283529160200191610175565b820191906000526020600020905b81548152906001019060200180831161015857829003601f168201915b50505050509080600201805461018a9061073b565b80601f01602080910402602001604051908101604052809291908181526020018280546101b69061073b565b80156102035780601f106101d857610100808354040283529160200191610203565b820191906000526020600020905b8154815290600101906020018083116101e657829003601f168201915b5050505050908060030154905084565b60005481565b60008081548092919061022b9061079b565b919050555060405180608001604052808573ffffffffffffffffffffffffffffffffffffffff16815260200184815260200183815260200182815250600160008054815260200190815260200160002060008201518160000160006101000a81548173ffffffffffffffffffffffffffffffffffffffff021916908373ffffffffffffffffffffffffffffffffffffffff16021790555060208201518160010190816102d7919061098f565b5060408201518160020190816102ed919061098f565b50606082015181600301559050507f7b825f9c39d0e80158251342653d426fd61076a41eb60ef6202376c66e10199c84848484604051610330949392919061049e565b60405180910390a150505050565b6000604051905090565b600080fd5b600080fd5b6000819050919050565b61036581610352565b811461037057600080fd5b50565b6000813590506103828161035c565b92915050565b60006020828403121561039e5761039d610348565b5b60006103ac84828501610373565b91505092915050565b600073ffffffffffffffffffffffffffffffffffffffff82169050919050565b60006103e0826103b5565b9050919050565b6103f0816103d5565b82525050565b600081519050919050565b600082825260208201905092915050565b60005b83811015610430578082015181840152602081019050610415565b8381111561043f576000848401525b50505050565b6000601f19601f8301169050919050565b6000610461826103f6565b61046b8185610401565b935061047b818560208601610412565b61048481610445565b840191505092915050565b61049881610352565b82525050565b60006080820190506104b360008301876103e7565b81810360208301526104c58186610456565b905081810360408301526104d98185610456565b90506104e8606083018461048f565b95945050505050565b6000602082019050610506600083018461048f565b92915050565b610515816103d5565b811461052057600080fd5b50565b6000813590506105328161050c565b92915050565b600080fd5b600080fd5b7f4e487b7100000000000000000000000000000000000000000000000000000000600052604160045260246000fd5b61057a82610445565b810181811067ffffffffffffffff8211171561059957610598610542565b5b80604052505050565b60006105ac61033e565b90506105b88282610571565b919050565b600067ffffffffffffffff8211156105d8576105d7610542565b5b6105e182610445565b9050602081019050919050565b82818337600083830152505050565b600061061061060b846105bd565b6105a2565b90508281526020810184848401111561062c5761062b61053d565b5b6106378482856105ee565b509392505050565b600082601f83011261065457610653610538565b5b81356106648482602086016105fd565b91505092915050565b6000806000806080858703121561068757610686610348565b5b600061069587828801610523565b945050602085013567ffffffffffffffff8111156106b6576106b561034d565b5b6106c28782880161063f565b935050604085013567ffffffffffffffff8111156106e3576106e261034d565b5b6106ef8782880161063f565b925050606061070087828801610373565b91505092959194509250565b7f4e487b7100000000000000000000000000000000000000000000000000000000600052602260045260246000fd5b6000600282049050600182168061075357607f821691505b6020821081036107665761076561070c565b5b50919050565b7f4e487b7100000000000000000000000000000000000000000000000000000000600052601160045260246000fd5b60006107a682610352565b91507fffffffffffffffffffffffffffffffffffffffffffffffffffffffffffffffff82036107d8576107d761076c565b5b600182019050919050565b60008190508160005260206000209050919050565b60006020601f8301049050919050565b600082821b905092915050565b6000600883026108457fffffffffffffffffffffffffffffffffffffffffffffffffffffffffffffffff82610808565b61084f8683610808565b95508019841693508086168417925050509392505050565b6000819050919050565b600061088c61088761088284610352565b610867565b610352565b9050919050565b6000819050919050565b6108a683610871565b6108ba6108b282610893565b848454610815565b825550505050565b600090565b6108cf6108c2565b6108da81848461089d565b505050565b5b818110156108fe576108f36000826108c7565b6001810190506108e0565b5050565b601f82111561094357610914816107e3565b61091d846107f8565b8101602085101561092c578190505b610940610938856107f8565b8301826108df565b50505b505050565b600082821c905092915050565b600061096660001984600802610948565b1980831691505092915050565b600061097f8383610955565b9150826002028217905092915050565b610998826103f6565b67ffffffffffffffff8111156109b1576109b0610542565b5b6109bb825461073b565b6109c6828285610902565b600060209050601f8311600181146109f957600084156109e7578287015190505b6109f18582610973565b865550610a59565b601f198416610a07866107e3565b60005b82811015610a2f57848901518255600182019150602085019450602081019050610a0a565b86831015610a4c5784890151610a48601f891682610955565b8355505b6001600288020188555050505b50505050505056fea2646970667358221220e9c633099cac0f5b04cb1856bffaaf62e874aa095639135cb4bf045adcd6adf764736f6c634300080f0033",
  "immutableReferences": {},
  "source": "// SPDX-License-Identifier: MIT\r\npragma solidity 0.8.15;\r\n\r\ncontract Emission {\r\n    uint256 public dataCount = 0;\r\n    \r\n    struct Data {\r\n        address wallet_id;\r\n        string carbon;\r\n        string date;\r\n        uint fees;\r\n    }\r\n\r\n    event EmissionData(address wallet_id, string carbon, string date, uint fees);\r\n\r\n    mapping(uint256 => Data) public emmis;\r\n\r\n    function createEmissionData(address _walletID, string memory _carbon, string memory _date, uint _fees) public {\r\n        dataCount++;\r\n        emmis[dataCount] = Data(_walletID, _carbon, _date, _fees);\r\n        emit EmissionData(_walletID, _carbon, _date, _fees);\r\n    }\r\n\r\n}",
  "sourcePath": "D:\\GitHub\\CodeBreaker\\EcoChain\\contracts\\Emission.sol",
  "compiler": {
    "name": "solc",
    "version": "0.8.15+commit.e14f2714.Emscripten.clang"
  },
  "schemaVersion": "3.4.15",
  "updatedAt": "2023-08-18T15:33:03.202Z",
  "networkType": "ethereum",
  "devdoc": {
    "kind": "dev",
    "methods": {},
    "version": 1
  },
  "userdoc": {
    "kind": "user",
    "methods": {},
    "version": 1
  }
}